{
  "_format": "hh-sol-artifact-1",
  "contractName": "FakeBTCPriceProvider",
  "sourceName": "contracts/TestImplementations.sol",
  "abi": [
    {
      "inputs": [
        {
          "internalType": "uint256",
          "name": "price",
          "type": "uint256"
        }
      ],
      "stateMutability": "nonpayable",
      "type": "constructor"
    },
    {
      "inputs": [],
      "name": "decimals",
      "outputs": [
        {
          "internalType": "uint8",
          "name": "",
          "type": "uint8"
        }
      ],
      "stateMutability": "view",
      "type": "function"
    },
    {
      "inputs": [],
      "name": "description",
      "outputs": [
        {
          "internalType": "string",
          "name": "",
          "type": "string"
        }
      ],
      "stateMutability": "view",
      "type": "function"
    },
    {
      "inputs": [
        {
          "internalType": "uint80",
          "name": "",
          "type": "uint80"
        }
      ],
      "name": "getRoundData",
      "outputs": [
        {
          "internalType": "uint80",
          "name": "",
          "type": "uint80"
        },
        {
          "internalType": "int256",
          "name": "",
          "type": "int256"
        },
        {
          "internalType": "uint256",
          "name": "",
          "type": "uint256"
        },
        {
          "internalType": "uint256",
          "name": "",
          "type": "uint256"
        },
        {
          "internalType": "uint80",
          "name": "",
          "type": "uint80"
        }
      ],
      "stateMutability": "pure",
      "type": "function"
    },
    {
      "inputs": [],
      "name": "latestAnswer",
      "outputs": [
        {
          "internalType": "int256",
          "name": "result",
          "type": "int256"
        }
      ],
      "stateMutability": "view",
      "type": "function"
    },
    {
      "inputs": [],
      "name": "latestRoundData",
      "outputs": [
        {
          "internalType": "uint80",
          "name": "",
          "type": "uint80"
        },
        {
          "internalType": "int256",
          "name": "answer",
          "type": "int256"
        },
        {
          "internalType": "uint256",
          "name": "",
          "type": "uint256"
        },
        {
          "internalType": "uint256",
          "name": "",
          "type": "uint256"
        },
        {
          "internalType": "uint80",
          "name": "",
          "type": "uint80"
        }
      ],
      "stateMutability": "view",
      "type": "function"
    },
    {
      "inputs": [],
      "name": "price",
      "outputs": [
        {
          "internalType": "uint256",
          "name": "",
          "type": "uint256"
        }
      ],
      "stateMutability": "view",
      "type": "function"
    },
    {
      "inputs": [
        {
          "internalType": "uint256",
          "name": "_price",
          "type": "uint256"
        }
      ],
      "name": "setPrice",
      "outputs": [],
      "stateMutability": "nonpayable",
      "type": "function"
    },
    {
      "inputs": [],
      "name": "version",
      "outputs": [
        {
          "internalType": "uint256",
          "name": "",
          "type": "uint256"
        }
      ],
      "stateMutability": "view",
      "type": "function"
    }
  ],
  "bytecode": "0x60806040526008600160006101000a81548160ff021916908360ff1602179055506040518060400160405280601381526020017f5465737420696d706c656d656e746174696c6e000000000000000000000000008152506002908051906020019061006b9291906100c0565b50600060035534801561007d57600080fd5b506040516105bb3803806105bb833981810160405260208110156100a057600080fd5b81019080805190602001909291905050508080600081905550505061016b565b828054600181600116156101000203166002900490600052602060002090601f0160209004810192826100f6576000855561013d565b82601f1061010f57805160ff191683800117855561013d565b8280016001018555821561013d579182015b8281111561013c578251825591602001919060010190610121565b5b50905061014a919061014e565b5090565b5b8082111561016757600081600090555060010161014f565b5090565b6104418061017a6000396000f3fe608060405234801561001057600080fd5b50600436106100885760003560e01c806391b7f5ed1161005b57806391b7f5ed1461016d5780639a6fc8f51461019b578063a035b1fe1461021d578063feaf968c1461023b57610088565b8063313ce5671461008d57806350d25bcd146100ae57806354fd4d50146100cc5780637284e416146100ea575b600080fd5b61009561028d565b604051808260ff16815260200191505060405180910390f35b6100b66102a0565b6040518082815260200191505060405180910390f35b6100d46102bc565b6040518082815260200191505060405180910390f35b6100f26102c2565b6040518080602001828103825283818151815260200191508051906020019080838360005b83811015610132578082015181840152602081019050610117565b50505050905090810190601f16801561015f5780820380516001836020036101000a031916815260200191505b509250505060405180910390f35b6101996004803603602081101561018357600080fd5b8101908080359060200190929190505050610360565b005b6101d3600480360360208110156101b157600080fd5b81019080803569ffffffffffffffffffff16906020019092919050505061036a565b604051808669ffffffffffffffffffff1681526020018581526020018481526020018381526020018269ffffffffffffffffffff1681526020019550505050505060405180910390f35b6102256103e0565b6040518082815260200191505060405180910390f35b6102436103e6565b604051808669ffffffffffffffffffff1681526020018581526020018481526020018381526020018269ffffffffffffffffffff1681526020019550505050505060405180910390f35b600160009054906101000a900460ff1681565b60006102aa6103e6565b90919293509091509050508091505090565b60035481565b60028054600181600116156101000203166002900480601f0160208091040260200160405190810160405280929190818152602001828054600181600116156101000203166002900480156103585780601f1061032d57610100808354040283529160200191610358565b820191906000526020600020905b81548152906001019060200180831161033b57829003601f168201915b505050505081565b8060008190555050565b60008060008060006040517f08c379a00000000000000000000000000000000000000000000000000000000081526004018080602001828103825260138152602001807f5465737420696d706c656d656e746174696f6e0000000000000000000000000081525060200191505060405180910390fd5b60005481565b600080600080600080549350600084600080600094509450945094509450909192939456fea2646970667358221220392e8d8f46e4c0b3f973c49bbdd674be58877f71d063cc8b5a2cb693d190072e64736f6c63430007060033",
  "linkReferences": {},
  "deployedLinkReferences": {}
}