{
  "_format": "hh-sol-artifact-1",
  "contractName": "PriceCalculator",
  "sourceName": "contracts/Options/PriceCalculator.sol",
  "abi": [
    {
      "inputs": [
        {
          "internalType": "uint256[3]",
          "name": "initialRates",
          "type": "uint256[3]"
        },
        {
          "internalType": "contract AggregatorV3Interface",
          "name": "_priceProvider",
          "type": "address"
        },
        {
          "internalType": "contract IHegicLiquidityPool",
          "name": "_pool",
          "type": "address"
        },
        {
          "internalType": "uint8",
          "name": "tokenDecimalsDiff",
          "type": "uint8"
        }
      ],
      "stateMutability": "nonpayable",
      "type": "constructor"
    },
    {
      "anonymous": false,
      "inputs": [
        {
          "indexed": true,
          "internalType": "address",
          "name": "previousOwner",
          "type": "address"
        },
        {
          "indexed": true,
          "internalType": "address",
          "name": "newOwner",
          "type": "address"
        }
      ],
      "name": "OwnershipTransferred",
      "type": "event"
    },
    {
      "inputs": [
        {
          "internalType": "uint256",
          "name": "period",
          "type": "uint256"
        },
        {
          "internalType": "uint256",
          "name": "amount",
          "type": "uint256"
        },
        {
          "internalType": "uint256",
          "name": "strike",
          "type": "uint256"
        },
        {
          "internalType": "enum IHegicOptions.OptionType",
          "name": "optionType",
          "type": "uint8"
        }
      ],
      "name": "fees",
      "outputs": [
        {
          "internalType": "uint256",
          "name": "settlementFee",
          "type": "uint256"
        },
        {
          "internalType": "uint256",
          "name": "premium",
          "type": "uint256"
        }
      ],
      "stateMutability": "view",
      "type": "function"
    },
    {
      "inputs": [
        {
          "internalType": "uint256",
          "name": "",
          "type": "uint256"
        }
      ],
      "name": "impliedVolRate",
      "outputs": [
        {
          "internalType": "uint256",
          "name": "",
          "type": "uint256"
        }
      ],
      "stateMutability": "view",
      "type": "function"
    },
    {
      "inputs": [],
      "name": "owner",
      "outputs": [
        {
          "internalType": "address",
          "name": "",
          "type": "address"
        }
      ],
      "stateMutability": "view",
      "type": "function"
    },
    {
      "inputs": [],
      "name": "priceProvider",
      "outputs": [
        {
          "internalType": "contract AggregatorV3Interface",
          "name": "",
          "type": "address"
        }
      ],
      "stateMutability": "view",
      "type": "function"
    },
    {
      "inputs": [],
      "name": "renounceOwnership",
      "outputs": [],
      "stateMutability": "nonpayable",
      "type": "function"
    },
    {
      "inputs": [
        {
          "internalType": "uint256[3]",
          "name": "values",
          "type": "uint256[3]"
        }
      ],
      "name": "setImpliedVolRate",
      "outputs": [],
      "stateMutability": "nonpayable",
      "type": "function"
    },
    {
      "inputs": [
        {
          "internalType": "address",
          "name": "newOwner",
          "type": "address"
        }
      ],
      "name": "transferOwnership",
      "outputs": [],
      "stateMutability": "nonpayable",
      "type": "function"
    },
    {
      "inputs": [],
      "name": "utilizationRate",
      "outputs": [
        {
          "internalType": "uint256",
          "name": "",
          "type": "uint256"
        }
      ],
      "stateMutability": "view",
      "type": "function"
    }
  ],
  "bytecode": "0x60a0604052630bebc2006004553480156200001957600080fd5b50604051620018f4380380620018f483398181016040528101906200003f9190620002fb565b6000620000516200019d60201b60201c565b9050806000806101000a81548173ffffffffffffffffffffffffffffffffffffffff021916908373ffffffffffffffffffffffffffffffffffffffff1602179055508073ffffffffffffffffffffffffffffffffffffffff16600073ffffffffffffffffffffffffffffffffffffffff167f8be0079c531659141344cd1fd0a4f28419497f9722a3daafe3b4186f6b6457e060405160405180910390a35081600660006101000a81548173ffffffffffffffffffffffffffffffffffffffff021916908373ffffffffffffffffffffffffffffffffffffffff16021790555082600560006101000a81548173ffffffffffffffffffffffffffffffffffffffff021916908373ffffffffffffffffffffffffffffffffffffffff16021790555083600190600362000184929190620001a5565b508060ff16600a0a6080818152505050505050620004a1565b600033905090565b8260038101928215620001d7579160200282015b82811115620001d6578251825591602001919060010190620001b9565b5b509050620001e69190620001ea565b5090565b5b8082111562000205576000816000905550600101620001eb565b5090565b6000620002206200021a846200039b565b62000367565b905080828560208602820111156200023757600080fd5b60005b858110156200026b5781620002508882620002cd565b8452602084019350602083019250506001810190506200023a565b5050509392505050565b600082601f8301126200028757600080fd5b60036200029684828562000209565b91505092915050565b600081519050620002b08162000439565b92915050565b600081519050620002c78162000453565b92915050565b600081519050620002de816200046d565b92915050565b600081519050620002f58162000487565b92915050565b60008060008060c085870312156200031257600080fd5b6000620003228782880162000275565b945050606062000335878288016200029f565b93505060806200034887828801620002b6565b92505060a06200035b87828801620002e4565b91505092959194509250565b6000604051905081810181811067ffffffffffffffff8211171562000391576200039062000437565b5b8060405250919050565b600067ffffffffffffffff821115620003b957620003b862000437565b5b602082029050919050565b6000620003d18262000400565b9050919050565b6000620003e582620003c4565b9050919050565b6000620003f982620003c4565b9050919050565b600073ffffffffffffffffffffffffffffffffffffffff82169050919050565b6000819050919050565b600060ff82169050919050565bfe5b6200044481620003d8565b81146200045057600080fd5b50565b6200045e81620003ec565b81146200046a57600080fd5b50565b620004788162000420565b81146200048457600080fd5b50565b62000492816200042a565b81146200049e57600080fd5b50565b608051611438620004bc6000398061078352506114386000f3fe608060405234801561001057600080fd5b50600436106100885760003560e01c806390ea3bec1161005b57806390ea3bec146100ef578063b888879e1461011f578063c7c3b53f1461013d578063f2fde38b1461016e57610088565b80636c321c8a1461008d578063715018a6146100ab57806382d64e1f146100b55780638da5cb5b146100d1575b600080fd5b61009561018a565b6040516100a2919061127a565b60405180910390f35b6100b3610190565b005b6100cf60048036038101906100ca9190610fdc565b6102fd565b005b6100d96103c1565b6040516100e69190611204565b60405180910390f35b61010960048036038101906101049190611005565b6103ea565b604051610116919061127a565b60405180910390f35b610127610405565b604051610134919061121f565b60405180910390f35b61015760048036038101906101529190611057565b61042b565b604051610165929190611295565b60405180910390f35b61018860048036038101906101839190610fb3565b61049f565b005b60045481565b610198610691565b73ffffffffffffffffffffffffffffffffffffffff166101b66103c1565b73ffffffffffffffffffffffffffffffffffffffff161461023f576040517f08c379a00000000000000000000000000000000000000000000000000000000081526004018080602001828103825260208152602001807f4f776e61626c653a2063616c6c6572206973206e6f7420746865206f776e657281525060200191505060405180910390fd5b600073ffffffffffffffffffffffffffffffffffffffff1660008054906101000a900473ffffffffffffffffffffffffffffffffffffffff1673ffffffffffffffffffffffffffffffffffffffff167f8be0079c531659141344cd1fd0a4f28419497f9722a3daafe3b4186f6b6457e060405160405180910390a360008060006101000a81548173ffffffffffffffffffffffffffffffffffffffff021916908373ffffffffffffffffffffffffffffffffffffffff160217905550565b610305610691565b73ffffffffffffffffffffffffffffffffffffffff166103236103c1565b73ffffffffffffffffffffffffffffffffffffffff16146103ac576040517f08c379a00000000000000000000000000000000000000000000000000000000081526004018080602001828103825260208152602001807f4f776e61626c653a2063616c6c6572206973206e6f7420746865206f776e657281525060200191505060405180910390fd5b8060019060036103bd929190610eba565b5050565b60008060009054906101000a900473ffffffffffffffffffffffffffffffffffffffff16905090565b600181600381106103fa57600080fd5b016000915090505481565b600560009054906101000a900473ffffffffffffffffffffffffffffffffffffffff1681565b6000806000610438610699565b905080851461047c576040517f08c379a00000000000000000000000000000000000000000000000000000000081526004016104739061123a565b60405180910390fd5b61048586610749565b92506104938688878761075d565b91505094509492505050565b6104a7610691565b73ffffffffffffffffffffffffffffffffffffffff166104c56103c1565b73ffffffffffffffffffffffffffffffffffffffff161461054e576040517f08c379a00000000000000000000000000000000000000000000000000000000081526004018080602001828103825260208152602001807f4f776e61626c653a2063616c6c6572206973206e6f7420746865206f776e657281525060200191505060405180910390fd5b600073ffffffffffffffffffffffffffffffffffffffff168173ffffffffffffffffffffffffffffffffffffffff1614156105d4576040517f08c379a00000000000000000000000000000000000000000000000000000000081526004018080602001828103825260268152602001806113bc6026913960400191505060405180910390fd5b8073ffffffffffffffffffffffffffffffffffffffff1660008054906101000a900473ffffffffffffffffffffffffffffffffffffffff1673ffffffffffffffffffffffffffffffffffffffff167f8be0079c531659141344cd1fd0a4f28419497f9722a3daafe3b4186f6b6457e060405160405180910390a3806000806101000a81548173ffffffffffffffffffffffffffffffffffffffff021916908373ffffffffffffffffffffffffffffffffffffffff16021790555050565b600033905090565b600080600560009054906101000a900473ffffffffffffffffffffffffffffffffffffffff1673ffffffffffffffffffffffffffffffffffffffff1663feaf968c6040518163ffffffff1660e01b815260040160a06040518083038186803b15801561070457600080fd5b505afa158015610718573d6000803e3d6000fd5b505050506040513d601f19601f8201168201806040525081019061073c91906110ba565b5050509150508091505090565b60006064828161075557fe5b049050919050565b60006001600281111561076c57fe5b82600281111561077857fe5b14156108135761080c7f00000000000000000000000000000000000000000000000000000000000000006107fe6305f5e1006107f06107b5610699565b6107e2896107d46107c58d61089d565b8e610bbb90919063ffffffff16565b610bbb90919063ffffffff16565b610c4190919063ffffffff16565b610c4190919063ffffffff16565b610c4190919063ffffffff16565b9050610895565b60028081111561081f57fe5b82600281111561082b57fe5b14156108945761088d6305f5e10061087f85610871610848610699565b6108636108548b61089d565b8c610bbb90919063ffffffff16565b610bbb90919063ffffffff16565b610c4190919063ffffffff16565b610c4190919063ffffffff16565b9050610895565b5b949350505050565b600080600660009054906101000a900473ffffffffffffffffffffffffffffffffffffffff1673ffffffffffffffffffffffffffffffffffffffff1663ad7a672f6040518163ffffffff1660e01b815260040160206040518083038186803b15801561090857600080fd5b505afa15801561091c573d6000803e3d6000fd5b505050506040513d601f19601f82011682018060405250810190610940919061102e565b905060008111610985576040517f08c379a000000000000000000000000000000000000000000000000000000000815260040161097c9061125a565b60405180910390fd5b62093a808310156109a757600160006003811061099e57fe5b015491506109dc565b6224ea008310156109c857600180600381106109bf57fe5b015491506109db565b60016002600381106109d657fe5b015491505b5b6109f76109e884610cca565b83610bbb90919063ffffffff16565b9150610a386040518060400160405280600681526020017f506572696f64000000000000000000000000000000000000000000000000000081525084610d07565b610a7f6040518060400160405280600a81526020017f506572696f645351525400000000000000000000000000000000000000000000815250610a7a85610cca565b610d07565b6000610b4a82610b3c6402540be400600660009054906101000a900473ffffffffffffffffffffffffffffffffffffffff1673ffffffffffffffffffffffffffffffffffffffff16636ab28bc86040518163ffffffff1660e01b815260040160206040518083038186803b158015610af657600080fd5b505afa158015610b0a573d6000803e3d6000fd5b505050506040513d601f19601f82011682018060405250810190610b2e919061102e565b610bbb90919063ffffffff16565b610c4190919063ffffffff16565b905063ee6b2800811115610bb457610baf67058d15e176280000610ba1600454610b93610b8463ee6b280087610e0e90919063ffffffff16565b88610bbb90919063ffffffff16565b610bbb90919063ffffffff16565b610c4190919063ffffffff16565b830192505b5050919050565b600080831415610bce5760009050610c3b565b6000828402905082848281610bdf57fe5b0414610c36576040517f08c379a00000000000000000000000000000000000000000000000000000000081526004018080602001828103825260218152602001806113e26021913960400191505060405180910390fd5b809150505b92915050565b6000808211610cb8576040517f08c379a000000000000000000000000000000000000000000000000000000000815260040180806020018281038252601a8152602001807f536166654d6174683a206469766973696f6e206279207a65726f00000000000081525060200191505060405180910390fd5b818381610cc157fe5b04905092915050565b600081905060006001808401901c90505b81811015610d015780600182838681610cf057fe5b0401901c8092508193505050610cdb565b50919050565b610e0a82826040516024018080602001838152602001828103825284818151815260200191508051906020019080838360005b83811015610d55578082015181840152602081019050610d3a565b50505050905090810190601f168015610d825780820380516001836020036101000a031916815260200191505b5093505050506040516020818303038152906040527f9710a9d0000000000000000000000000000000000000000000000000000000007bffffffffffffffffffffffffffffffffffffffffffffffffffffffff19166020820180517bffffffffffffffffffffffffffffffffffffffffffffffffffffffff8381831617835250505050610e91565b5050565b600082821115610e86576040517f08c379a000000000000000000000000000000000000000000000000000000000815260040180806020018281038252601e8152602001807f536166654d6174683a207375627472616374696f6e206f766572666c6f77000081525060200191505060405180910390fd5b818303905092915050565b60008151905060006a636f6e736f6c652e6c6f679050602083016000808483855afa5050505050565b8260038101928215610ee9579160200282015b82811115610ee8578235825591602001919060010190610ecd565b5b509050610ef69190610efa565b5090565b5b80821115610f13576000816000905550600101610efb565b5090565b600081359050610f268161134f565b92915050565b600081905082602060030282011115610f4457600080fd5b92915050565b600081359050610f5981611366565b92915050565b600081519050610f6e81611376565b92915050565b600081359050610f838161138d565b92915050565b600081519050610f988161138d565b92915050565b600081519050610fad816113a4565b92915050565b600060208284031215610fc557600080fd5b6000610fd384828501610f17565b91505092915050565b600060608284031215610fee57600080fd5b6000610ffc84828501610f2c565b91505092915050565b60006020828403121561101757600080fd5b600061102584828501610f74565b91505092915050565b60006020828403121561104057600080fd5b600061104e84828501610f89565b91505092915050565b6000806000806080858703121561106d57600080fd5b600061107b87828801610f74565b945050602061108c87828801610f74565b935050604061109d87828801610f74565b92505060606110ae87828801610f4a565b91505092959194509250565b600080600080600060a086880312156110d257600080fd5b60006110e088828901610f9e565b95505060206110f188828901610f5f565b945050604061110288828901610f89565b935050606061111388828901610f89565b925050608061112488828901610f9e565b9150509295509295909350565b61113a816112cf565b82525050565b6111498161132b565b82525050565b600061115c6028836112be565b91507f4f6e6c792041544d206f7074696f6e73206172652063757272656e746c79206160008301527f7661696c61626c650000000000000000000000000000000000000000000000006020830152604082019050919050565b60006111c2600d836112be565b91507f506f6f6c20697320656d707479000000000000000000000000000000000000006000830152602082019050919050565b6111fe8161130b565b82525050565b60006020820190506112196000830184611131565b92915050565b60006020820190506112346000830184611140565b92915050565b600060208201905081810360008301526112538161114f565b9050919050565b60006020820190508181036000830152611273816111b5565b9050919050565b600060208201905061128f60008301846111f5565b92915050565b60006040820190506112aa60008301856111f5565b6112b760208301846111f5565b9392505050565b600082825260208201905092915050565b60006112da826112eb565b9050919050565b6000819050919050565b600073ffffffffffffffffffffffffffffffffffffffff82169050919050565b6000819050919050565b600069ffffffffffffffffffff82169050919050565b60006113368261133d565b9050919050565b6000611348826112eb565b9050919050565b611358816112cf565b811461136357600080fd5b50565b6003811061137357600080fd5b50565b61137f816112e1565b811461138a57600080fd5b50565b6113968161130b565b81146113a157600080fd5b50565b6113ad81611315565b81146113b857600080fd5b5056fe4f776e61626c653a206e6577206f776e657220697320746865207a65726f2061646472657373536166654d6174683a206d756c7469706c69636174696f6e206f766572666c6f77a264697066735822122012044257f7f2b41e28c5db7e36f382fa451db4797e0eb838322e77486d9f641864736f6c63430007060033",
  "linkReferences": {},
  "deployedLinkReferences": {}
}