{
  "_format": "hh-sol-artifact-1",
  "contractName": "PriceCalculator",
  "sourceName": "contracts/Options/PriceCalculator.sol",
  "abi": [
    {
      "inputs": [
        {
          "internalType": "uint256[3]",
          "name": "initialRates",
          "type": "uint256[3]"
        },
        {
          "internalType": "contract AggregatorV3Interface",
          "name": "_priceProvider",
          "type": "address"
        },
        {
          "internalType": "contract IHegicLiquidityPool",
          "name": "_pool",
          "type": "address"
        },
        {
          "internalType": "uint8",
          "name": "tokenDecimalsDiff",
          "type": "uint8"
        }
      ],
      "stateMutability": "nonpayable",
      "type": "constructor"
    },
    {
      "anonymous": false,
      "inputs": [
        {
          "indexed": true,
          "internalType": "address",
          "name": "previousOwner",
          "type": "address"
        },
        {
          "indexed": true,
          "internalType": "address",
          "name": "newOwner",
          "type": "address"
        }
      ],
      "name": "OwnershipTransferred",
      "type": "event"
    },
    {
      "inputs": [
        {
          "internalType": "uint256",
          "name": "period",
          "type": "uint256"
        },
        {
          "internalType": "uint256",
          "name": "amount",
          "type": "uint256"
        },
        {
          "internalType": "uint256",
          "name": "strike",
          "type": "uint256"
        },
        {
          "internalType": "enum IHegicOptions.OptionType",
          "name": "optionType",
          "type": "uint8"
        }
      ],
      "name": "fees",
      "outputs": [
        {
          "internalType": "uint256",
          "name": "settlementFee",
          "type": "uint256"
        },
        {
          "internalType": "uint256",
          "name": "premium",
          "type": "uint256"
        }
      ],
      "stateMutability": "view",
      "type": "function"
    },
    {
      "inputs": [
        {
          "internalType": "uint256",
          "name": "",
          "type": "uint256"
        }
      ],
      "name": "impliedVolRate",
      "outputs": [
        {
          "internalType": "uint256",
          "name": "",
          "type": "uint256"
        }
      ],
      "stateMutability": "view",
      "type": "function"
    },
    {
      "inputs": [],
      "name": "owner",
      "outputs": [
        {
          "internalType": "address",
          "name": "",
          "type": "address"
        }
      ],
      "stateMutability": "view",
      "type": "function"
    },
    {
      "inputs": [],
      "name": "priceProvider",
      "outputs": [
        {
          "internalType": "contract AggregatorV3Interface",
          "name": "",
          "type": "address"
        }
      ],
      "stateMutability": "view",
      "type": "function"
    },
    {
      "inputs": [],
      "name": "renounceOwnership",
      "outputs": [],
      "stateMutability": "nonpayable",
      "type": "function"
    },
    {
      "inputs": [
        {
          "internalType": "uint256[3]",
          "name": "values",
          "type": "uint256[3]"
        }
      ],
      "name": "setImpliedVolRate",
      "outputs": [],
      "stateMutability": "nonpayable",
      "type": "function"
    },
    {
      "inputs": [
        {
          "internalType": "address",
          "name": "newOwner",
          "type": "address"
        }
      ],
      "name": "transferOwnership",
      "outputs": [],
      "stateMutability": "nonpayable",
      "type": "function"
    },
    {
      "inputs": [],
      "name": "utilizationRate",
      "outputs": [
        {
          "internalType": "uint256",
          "name": "",
          "type": "uint256"
        }
      ],
      "stateMutability": "view",
      "type": "function"
    }
  ],
  "bytecode": "0x60a0604052630bebc20060045534801561001857600080fd5b5060405161116a38038061116a833981810160405260c081101561003b57600080fd5b8101908091908260600180519060200190929190805190602001909291908051906020019092919050505060006100766101bf60201b60201c565b9050806000806101000a81548173ffffffffffffffffffffffffffffffffffffffff021916908373ffffffffffffffffffffffffffffffffffffffff1602179055508073ffffffffffffffffffffffffffffffffffffffff16600073ffffffffffffffffffffffffffffffffffffffff167f8be0079c531659141344cd1fd0a4f28419497f9722a3daafe3b4186f6b6457e060405160405180910390a35081600660006101000a81548173ffffffffffffffffffffffffffffffffffffffff021916908373ffffffffffffffffffffffffffffffffffffffff16021790555082600560006101000a81548173ffffffffffffffffffffffffffffffffffffffff021916908373ffffffffffffffffffffffffffffffffffffffff1602179055508360019060036101a79291906101c7565b508060ff16600a0a6080818152505050505050610224565b600033905090565b82600381019282156101f6579160200282015b828111156101f55782518255916020019190600101906101da565b5b5090506102039190610207565b5090565b5b80821115610220576000816000905550600101610208565b5090565b608051610f2c61023e600039806108755250610f2c6000f3fe608060405234801561001057600080fd5b50600436106100885760003560e01c806390ea3bec1161005b57806390ea3bec14610117578063b888879e14610159578063c7c3b53f1461018d578063f2fde38b146101f757610088565b80636c321c8a1461008d578063715018a6146100ab57806382d64e1f146100b55780638da5cb5b146100e3575b600080fd5b61009561023b565b6040518082815260200191505060405180910390f35b6100b3610241565b005b6100e1600480360360608110156100cb57600080fd5b81019080806060019091929192905050506103ae565b005b6100eb610472565b604051808273ffffffffffffffffffffffffffffffffffffffff16815260200191505060405180910390f35b6101436004803603602081101561012d57600080fd5b810190808035906020019092919050505061049b565b6040518082815260200191505060405180910390f35b6101616104b6565b604051808273ffffffffffffffffffffffffffffffffffffffff16815260200191505060405180910390f35b6101da600480360360808110156101a357600080fd5b81019080803590602001909291908035906020019092919080359060200190929190803560ff1690602001909291905050506104dc565b604051808381526020018281526020019250505060405180910390f35b6102396004803603602081101561020d57600080fd5b81019080803573ffffffffffffffffffffffffffffffffffffffff169060200190929190505050610566565b005b60045481565b610249610758565b73ffffffffffffffffffffffffffffffffffffffff16610267610472565b73ffffffffffffffffffffffffffffffffffffffff16146102f0576040517f08c379a00000000000000000000000000000000000000000000000000000000081526004018080602001828103825260208152602001807f4f776e61626c653a2063616c6c6572206973206e6f7420746865206f776e657281525060200191505060405180910390fd5b600073ffffffffffffffffffffffffffffffffffffffff1660008054906101000a900473ffffffffffffffffffffffffffffffffffffffff1673ffffffffffffffffffffffffffffffffffffffff167f8be0079c531659141344cd1fd0a4f28419497f9722a3daafe3b4186f6b6457e060405160405180910390a360008060006101000a81548173ffffffffffffffffffffffffffffffffffffffff021916908373ffffffffffffffffffffffffffffffffffffffff160217905550565b6103b6610758565b73ffffffffffffffffffffffffffffffffffffffff166103d4610472565b73ffffffffffffffffffffffffffffffffffffffff161461045d576040517f08c379a00000000000000000000000000000000000000000000000000000000081526004018080602001828103825260208152602001807f4f776e61626c653a2063616c6c6572206973206e6f7420746865206f776e657281525060200191505060405180910390fd5b80600190600361046e929190610e2a565b5050565b60008060009054906101000a900473ffffffffffffffffffffffffffffffffffffffff16905090565b600181600381106104ab57600080fd5b016000915090505481565b600560009054906101000a900473ffffffffffffffffffffffffffffffffffffffff1681565b60008060006104e9610760565b9050808514610543576040517f08c379a0000000000000000000000000000000000000000000000000000000008152600401808060200182810382526028815260200180610e886028913960400191505060405180910390fd5b61054c8661083b565b925061055a8688878761084f565b91505094509492505050565b61056e610758565b73ffffffffffffffffffffffffffffffffffffffff1661058c610472565b73ffffffffffffffffffffffffffffffffffffffff1614610615576040517f08c379a00000000000000000000000000000000000000000000000000000000081526004018080602001828103825260208152602001807f4f776e61626c653a2063616c6c6572206973206e6f7420746865206f776e657281525060200191505060405180910390fd5b600073ffffffffffffffffffffffffffffffffffffffff168173ffffffffffffffffffffffffffffffffffffffff16141561069b576040517f08c379a0000000000000000000000000000000000000000000000000000000008152600401808060200182810382526026815260200180610eb06026913960400191505060405180910390fd5b8073ffffffffffffffffffffffffffffffffffffffff1660008054906101000a900473ffffffffffffffffffffffffffffffffffffffff1673ffffffffffffffffffffffffffffffffffffffff167f8be0079c531659141344cd1fd0a4f28419497f9722a3daafe3b4186f6b6457e060405160405180910390a3806000806101000a81548173ffffffffffffffffffffffffffffffffffffffff021916908373ffffffffffffffffffffffffffffffffffffffff16021790555050565b600033905090565b600080600560009054906101000a900473ffffffffffffffffffffffffffffffffffffffff1673ffffffffffffffffffffffffffffffffffffffff1663feaf968c6040518163ffffffff1660e01b815260040160a06040518083038186803b1580156107cb57600080fd5b505afa1580156107df573d6000803e3d6000fd5b505050506040513d60a08110156107f557600080fd5b8101908080519060200190929190805190602001909291908051906020019092919080519060200190929190805190602001909291905050505050509150508091505090565b60006064828161084757fe5b049050919050565b60006001600281111561085e57fe5b82600281111561086a57fe5b1415610902576108fb7f00000000000000000000000000000000000000000000000000000000000000006108ed6305f5e1006108df6305f5e1006108d1896108c36108b48d61098c565b8e610c5b90919063ffffffff16565b610c5b90919063ffffffff16565b610ce190919063ffffffff16565b610ce190919063ffffffff16565b610ce190919063ffffffff16565b9050610984565b60028081111561090e57fe5b82600281111561091a57fe5b14156109835761097c6305f5e10061096e85610960610937610760565b6109526109438b61098c565b8c610c5b90919063ffffffff16565b610c5b90919063ffffffff16565b610ce190919063ffffffff16565b610ce190919063ffffffff16565b9050610984565b5b949350505050565b600080600660009054906101000a900473ffffffffffffffffffffffffffffffffffffffff1673ffffffffffffffffffffffffffffffffffffffff1663ad7a672f6040518163ffffffff1660e01b815260040160206040518083038186803b1580156109f757600080fd5b505afa158015610a0b573d6000803e3d6000fd5b505050506040513d6020811015610a2157600080fd5b8101908080519060200190929190505050905060008111610aaa576040517f08c379a000000000000000000000000000000000000000000000000000000000815260040180806020018281038252600d8152602001807f506f6f6c20697320656d7074790000000000000000000000000000000000000081525060200191505060405180910390fd5b62093a80831015610acc576001600060038110610ac357fe5b01549150610b01565b6224ea00831015610aed5760018060038110610ae457fe5b01549150610b00565b6001600260038110610afb57fe5b015491505b5b610b1c610b0d84610d6a565b83610c5b90919063ffffffff16565b91506000610bec82610bde6402540be400600660009054906101000a900473ffffffffffffffffffffffffffffffffffffffff1673ffffffffffffffffffffffffffffffffffffffff16636ab28bc86040518163ffffffff1660e01b815260040160206040518083038186803b158015610b9557600080fd5b505afa158015610ba9573d6000803e3d6000fd5b505050506040513d6020811015610bbf57600080fd5b8101908080519060200190929190505050610c5b90919063ffffffff16565b610ce190919063ffffffff16565b905063ee6b2800811115610c5457610c5167058d15e176280000610c43600454610c35610c2663ee6b280087610da790919063ffffffff16565b88610c5b90919063ffffffff16565b610c5b90919063ffffffff16565b610ce190919063ffffffff16565b92505b5050919050565b600080831415610c6e5760009050610cdb565b6000828402905082848281610c7f57fe5b0414610cd6576040517f08c379a0000000000000000000000000000000000000000000000000000000008152600401808060200182810382526021815260200180610ed66021913960400191505060405180910390fd5b809150505b92915050565b6000808211610d58576040517f08c379a000000000000000000000000000000000000000000000000000000000815260040180806020018281038252601a8152602001807f536166654d6174683a206469766973696f6e206279207a65726f00000000000081525060200191505060405180910390fd5b818381610d6157fe5b04905092915050565b600081905060006001808401901c90505b81811015610da15780600182838681610d9057fe5b0401901c8092508193505050610d7b565b50919050565b600082821115610e1f576040517f08c379a000000000000000000000000000000000000000000000000000000000815260040180806020018281038252601e8152602001807f536166654d6174683a207375627472616374696f6e206f766572666c6f77000081525060200191505060405180910390fd5b818303905092915050565b8260038101928215610e59579160200282015b82811115610e58578235825591602001919060010190610e3d565b5b509050610e669190610e6a565b5090565b5b80821115610e83576000816000905550600101610e6b565b509056fe4f6e6c792041544d206f7074696f6e73206172652063757272656e746c7920617661696c61626c654f776e61626c653a206e6577206f776e657220697320746865207a65726f2061646472657373536166654d6174683a206d756c7469706c69636174696f6e206f766572666c6f77a2646970667358221220944aa7027cb70b33af28c7b1b63520f3398f7b4bf1647b6830d59768e175ac3964736f6c63430007060033",
  "linkReferences": {},
  "deployedLinkReferences": {}
}